:020000040800F2
:10000000F80700205D1300080D0200080F02000829
:1000100013020008170200081B020008000000007D
:100020000000000000000000000000001F020008A7
:100030002102000800000000230200082502000839
:100040007713000877130008771300087713000868
:100050007713000877130008771300087713000858
:100060007713000877130008771300087713000848
:100070007713000877130008771300087713000838
:100080007713000877130008771300087713000828
:100090007713000877130008771300087713000818
:1000A0007713000877130008771300087713000808
:1000B000771300081B110008771300087713000856
:1000C00077130008771300087713000877130008E8
:1000D00077130008D312000877130008771300087D
:1000E00077130008771300087713000877130008C8
:1000F00077130008771300087713000877130008B8
:1001000077130008771300087713000877130008A7
:100110007713000877130008771300087713000897
:100120007713000877130008771300087713000887
:1001300000F002F800F03FF80AA090E8000C8244BA
:100140008344AAF10107DA4501D100F034F8AFF297
:10015000090EBAE80F0013F0010F18BFFB1A43F0A5
:100160000103184784450000A4450000103A24BF4D
:1001700078C878C1FAD8520724BF30C830C144BF0C
:1001800004680C607047000000230024002500264E
:10019000103A28BF78C1FBD8520728BF30C148BFEA
:1001A0000B607047642902F03986002070471FB544
:1001B0001FBD10B510BD02F00BFF1146FFF7F7FF92
:1001C00000F008F802F029FF03B4FFF7F2FF03BCC8
:1001D00001F024F800F0B8FF4FF4A06001F0DEF861
:1001E0004FF4165001F029F800F00EF940F2CF213B
:1001F000632000F065FF00F043FE00F0EDFB04E03B
:1002000000F0E2FC0A2000F0DCFFF9E7704700BFD5
:10021000FEE700BFFEE700BFFEE700BFFEE7704756
:1002200070477047704700000CB5002001900090A7
:100230006C48006840F480306A49086000BF694833
:10024000006800F4003000900198401C0190009874
:1002500018B90198B0F5A06FF1D16248006800F4B8
:10026000003010B10120009001E0002000900098C3
:10027000012843D15C48006840F010005A490860EA
:100280000846006820F0030008600846006840F057
:100290000200086053484068524948600846406878
:1002A00048600846406840F48060486008464068FE
:1002B00020F47C1048600846406840F4E81048602C
:1002C0000846006840F08070086000BF454800683C
:1002D00000F000700028F9D04248406820F0030088
:1002E000404948600846406840F00200486000BF4E
:1002F0003C48406800F00C000828F9D10CBD10B54E
:10030000FFF792FF10BD10B53648006840F00100BD
:10031000344908600846406834490840314948601B
:1003200008460068324908402E49086008460068BF
:1003300020F4802008600846406820F4FE004860F1
:100340004FF41F008860FFF7DAFF4FF00060294983
:10035000086010BD10B5002100200022214B5B6811
:1003600003F00C0121B1042906D0082928D107E0A7
:10037000214B224C236027E01F4B204C236023E0BD
:10038000184B5B6803F47010164B5B6803F4803203
:10039000022303EB904022B9194B4343174C2360CF
:1003A0000DE0104B5B6803F4003323B1144B43435F
:1003B000124C236003E0104B4343104C236003E0D6
:1003C0000D4B0E4C236000BF00BF064B5B68C3F3B0
:1003D00003130C4CE15C094B1B68CB40074C2360BA
:1003E00010BD000000100240002002400000FFF895
:1003F000FFFFF6FE08ED00E000127A00000000208A
:1004000000093D000400002008B50121082001F08A
:100410004FFB0620ADF8000010208DF803000320EC
:100420008DF802006946044801F086F8062102486A
:1004300001F02FF908BD0000000C014070B5054621
:100440000C4600F034FDAE2000F0DBFD00F06CFD4A
:1004500000B111E0284600F0D4FD00F065FD00B1C8
:100460000AE0204600F0CDFD00F05EFD00B103E0A3
:1004700000F03BFD012070BD00F037FD0020FAE7E1
:1004800010B540210620FFF7D9FF10BD70B5044616
:1004900000F00DFDAE2000F0B4FD00F045FD00B110
:1004A00017E0204600F0ADFD00F03EFD00B110E089
:1004B00000F0FDFCAF2000F0A4FD00F035FD00B120
:1004C00007E0002000F0C6FD054600F00EFD2846BE
:1004D00070BD00F00AFD0020FAE770B50446072061
:1004E000FFF7D4FF05462CB145F040010720FFF788
:1004F000A5FF04E025F040010720FFF79FFF70BD36
:1005000070B504460D4644EA0510C1B20920FFF754
:1005100095FF70BD70B504460720FFF7B7FF05468D
:1005200005F0E30040EA8400C1B20720FFF786FF30
:1005300070BD70B504460720FFF7A8FF054605F01B
:10054000FC0040EA04010720FFF778FF70BD10B5FA
:10055000044621460620FFF771FF10BD10B500F0DC
:100560008FFC0220FFF7F3FF0320FFF7E2FF0120DB
:10057000FFF7D0FF0B210846FFF7C2FF0120FFF76E
:10058000ACFF10BD70B506460C46154600F08FFC5A
:10059000AE2000F036FD00F0C7FC18B100F0A5FC5D
:1005A000012070BD304600F02CFD00F0BDFC00F0D5
:1005B0007EFCAF2000F025FD00F0B6FC0DE0012D23
:1005C00004D1002000F046FD207003E0012000F07F
:1005D00041FD2070681EC5B2641C002DEFD100F0F3
:1005E00084FC0020DDE708B5042269460520FFF7FA
:1005F000C9FF9DF801009DF8001040EA012007495D
:1006000008809DF803009DF8021040EA012004498B
:10061000088008BD10B5FFF7E6FF10BD14000020EC
:100620001600002000209A4908709A489A490860EC
:1006300000209A4908609A4908609A490860704702
:100640002DE9FF5F00219648006803F00BFF30D2D0
:1006500000219248006803F005FF2AD292498F4892
:10066000006803F0A1FC804603F004FC06460F4638
:100670008B48006803F0FEFB80464FF066328B4BE0
:1006800003F0CEF932463B46CDE9000102F0CEFF41
:10069000CDE902018048006803F0ECFB0446DDE987
:1006A000022303F0FDFA824602F0D2FE7A49086086
:1006B0000DE07948006803F0DDFB06467C4A7D4B7F
:1006C00003F0AEF9044602F0C3FE734908607149B5
:1006D0007148006803F0C6FD02D26E486E4908609A
:1006E000BDE8FF9F02468A4201DD0846704710467A
:1006F000FCE72DE9FE4F0446002002906448007894
:1007000005280CD2DFE800F0030C324A920000F01A
:1007100014FDB0F5FA6F02D901205D49087092E02E
:100720005D480168204603F09DFE0FD2204603F08D
:1007300031FD06464FF44871FFF7D4FF054603F03C
:1007400065FD5549086002205149087000F0F5FC2C
:1007500054490968401AB0F5FA6F04D900204F498E
:1007600008604F490860FFF76BFF6CE04A4801687A
:10077000204603F077FD03D20320454908700CE0C2
:10078000204603F007FD06464FF44871FFF7AAFF25
:10079000054603F03BFD4049086054E046492046C9
:1007A00003F094FB05463C480168284603F05AFDD7
:1007B00038D2012002903A4804600420344908707D
:1007C00000F0BBFC37490968451A284603F036FD9E
:1007D00081460021484603F0A9FC1ED02F4800683E
:1007E00003F048FB0746354A354B03F019F9054637
:1007F0000E46484603F03EFB07464FF03332314B7E
:1008000003F00EF92A463346CDE9000102F052FE0C
:10081000824602F01DFE2149086000F08EFC21494D
:10082000086002E002201A4908700CE000F085FC24
:100830001C490968401AC82802D9012014490870C7
:10084000FFF7FEFE00BF00BF0298BDE8FE8F10B5A7
:1008500004462046FFF74DFF10BD70B500210F483C
:10086000006803F063FC0ED00C4801684FF07E5026
:1008700003F09AFB0546144903F028FD044613498A
:1008800003F024FD70BD0020FCE7034800687047BA
:100890001C0000200000A0412000002024000020B7
:1008A000280000202C000020000020416666E63F62
:1008B000AE47E17A14AEEF3F0000F0419A99999962
:1008C0009999D93F3333E33F00007A4400007042E6
:1008D000002202600A6070470860002313607047BE
:1008E0002DE9F04105460E46144627682168306818
:1008F00003F0ECFC8046294603F0E8FA2060394614
:10090000206803F0E1FDBDE8F0810146086870470A
:1009100000201649086070472DE9F14F13484068E0
:1009200012490860086803F0A5FA0646104A114B00
:1009300003F076F804460D46009803F09BFA06464D
:100940000D4A0E4B03F06CF8804622462B4602F00F
:10095000B1FD824602F07CFD044948600A465168B8
:10096000106803F0B3FABDE8F88F000030000020F3
:100970005CDDC150084EE03F48457C5EEF63CF3FF1
:100980000020C1490870C1490860C1490860C149D7
:100990000860C1490860C14908600820C049087062
:1009A0000020C0490860704710B50446BE48047076
:1009B000FFF7E6FFBD4A111FBD48FFF78DFFBD4A97
:1009C000111FBB48FFF788FF0120AF49087010BD19
:1009D000B44A01681160704710B5FF20FFF756FD5B
:1009E000B54908700846007811282CD1642000F021
:1009F000E8FB08210620FFF721FD1620FFF746FD42
:100A0000AE4908701720FFF741FDAD4908704FF45B
:100A1000967000F0D6FB0320FFF799FD0320FFF747
:100A200088FD0120FFF776FD07210846FFF768FDE6
:100A30000120FFF752FDFFF7F5FD9A48FFF7C8FFC9
:100A40000320FFF7B1FF10BD00BF9E49098801F0E8
:100A500040010029F9D09B49091D0880704770B5F5
:100A600006460D460320FFF7EFFFFC20FFF7ECFFE3
:100A7000304603F08FFB04B2E0B2FFF7E5FFC4F3AA
:100A80000720FFF7E1FF284603F084FB04B2E0B241
:100A9000FFF7DAFFC4F30720FFF7D6FFFC20FFF7CC
:100AA000D3FF0320FFF7D0FF70BD70472DE9F84F4B
:100AB0004FF0000A0020009000F03FFB75490968E4
:100AC000A0EB010B584602F05CFF074600227E4B6C
:100AD00003F0A4F876D200F030FB6E490860FFF70F
:100AE00099FD7A48008803F0A9FB07466F4A111F59
:100AF000FFF7F6FE05467648008803F09FFB0746A1
:100B00006C4A111FFFF7ECFE814685F0004738461E
:100B1000FFF702FF06463046FFF799FE0446FFF74F
:100B20009CFE0746002103F09DFC12D2022056498C
:100B3000087022464946284600F0F6F8FFF78DFE79
:100B4000074603F027FB0FFA80FA00F072F90090D5
:100B500008E04D480078022804D101204A49087075
:100B600000F0D6F850480078012804D0022810D0B0
:100B700003281CD112E05648008803F05FFB0746AB
:100B80005248008803F05AFB80463946FFF767FF5A
:100B90000EE049462846FFF762FF09E051464DA0A6
:100BA00002F0FCF84FA0009902F0F8F800E000BF56
:100BB00000BF3CB100213B48006803F0B7FA01D008
:100BC000FFF773FFBDE8F88F10B5FFF76FFF10BD9B
:100BD00010B5FFF742FE10BD10B500F02AF910BDA8
:100BE0002F48007870472DE9F04100F0A6FA2A4915
:100BF0000968401AB0F5FA7F44D900242D48FFF760
:100C000084FE06462948FFF780FE0746314603F07A
:100C10005BFC0546374903F025FC0AD220480078E2
:100C20000F2806DA1E480078401C1D490870012470
:100C300019E01E48FFF769FE06461E48FFF765FEED
:100C40000746314603F040FC05462A4903F00AFCFA
:100C500009D213480078002805DD11480078401EAD
:100C60000F490870012444B10D4801780F20FFF7A7
:100C700047FC00F062FA0949086000F05EFA064994
:100C8000086000BFBDE8F0813C000020400000206B
:100C900044000020480000204C00002050000020AC
:100CA00054000020380000203D0000205C0000209F
:100CB0003333733F64000020680000206900002087
:100CC0006A00002000380140000024401400002089
:100CD000160000200D0AD0C4C2CAA3BA25640D0AAA
:100CE000000000000D0AD1AAD1F5A3BA25640D0AAF
:100CF0000000000000B8884700204F4908604F49B5
:100D000008604F4908704F4908604F4908707047A4
:100D100000204C4908604949086047490860484933
:100D200008704949087070472DE9F04F8BB00446B0
:100D3000894692462146204603F0C8FA05463E48B9
:100D40000168284603F0C2F83B4908604946484616
:100D500003F0BCFA054639480168284603F0B6F8A6
:100D60003649086037480068401C36490860BAF1C7
:100D7000000F5BD032480078401C314908700846AB
:100D80000078032852D12F48006803F057FA8046B4
:100D900041462948006803F007F9074603F06AF85E
:100DA000054602F0A7F9CDE904012648006803F0E2
:100DB00045FA014601902148006803F0F5F88346A2
:100DC00003F058F8074602F095F9054600221F4B3C
:100DD00002F026FECDE90201DDE9042302F026FC43
:100DE000CDE9060102F034FB099000200890184973
:100DF000099803F037FB06D2099803F0E7F9423867
:100E0000C0B208900AE01349099803F02BFB05D201
:100E1000099803F0DBF93238C0B20890FFF778FF89
:100E20000D490898085C0849087000BF0BB0BDE880
:100E3000F08F054800787047980000209C00002043
:100E4000A0000020A4000020A800002000005940BD
:100E500000008442000048426C000020322000E084
:100E600000BF0100A0F10102D0B2F9D170475A20B1
:100E700000E000BF0100A0F10102D0B2F9D170473B
:100E800008B50121082000F013FEC020ADF80000D5
:100E900010208DF8030003208DF802006946854874
:100EA00000F04AFBC021834800F0F3FB08BD00B509
:100EB0008048006820F070407E490860084600685D
:100EC00040F44050086001207B4908607B49C1F82C
:100ED0009801FFF7CCFF002077490860FFF7C7FFB4
:100EE00000207649C1F8980100BD00B5714800683E
:100EF00020F070406F4908600846006840F4405098
:100F0000086000206C49091F08606C49C1F89C0109
:100F1000FFF7ADFF01206849091F08606749C1F864
:100F20009C01FFF7A4FF00BD00B5002361480068E5
:100F300020F070405F4908600846006840F40040B7
:100F4000086001205C490860FFF791FF01205B49C0
:100F5000C1F89801FFF78BFF07E0581CC3B2FA2BCA
:100F600003DDFFF7C2FF012000BD53488038006851
:100F70000028F2D15049091F086000BFF4E700B50E
:100F800000204D49091F08604A48006820F0704061
:100F9000484908600846006840F440500860002056
:100FA0004649C1F89C01FFF762FF01204249091F31
:100FB0000860FFF75CFF00204049C1F8980100BDC0
:100FC00000B500203C49091F08603A48006820F03D
:100FD0007040384908600846006840F44050086096
:100FE00001203649C1F89C01FFF741FF0120324939
:100FF000091F0860FFF73BFF00203049C1F8980146
:1010000000BD10B503462B48006820F07040294908
:1010100008600846006840F44050086000202649F7
:10102000091F0860002412E0D80923490860580607
:10103000030E01202149C1F89801FFF718FF002095
:101040001D49091F0860FFF712FF601CC4B2082C7D
:10105000EADB10BD30B5044600231648006820F0D6
:101060007040144908600846006840F40040086079
:10107000002515E000201049091F0860FFF7F7FE62
:1010800001200E49C1F898015806030E0A4880381D
:10109000006808B1581CC3B2FFF7E9FE681CC5B26E
:1010A000082DE7DB14B9FFF78BFF01E0FFF767FFBF
:1010B000184630BD000C01409C8121420080214235
:1010C0007FB505460C460121022000F0FEFCADF87C
:1010D0000850ADF804400020ADF80A00ADF8060055
:1010E00001A9174801F020F801221146144801F027
:1010F00092FB1D208DF8000000208DF801000320D8
:101100008DF8020001208DF80300684600F04BF9CD
:1011100001210B4801F064FB7FBD10B50121084897
:1011200001F027FE40B107480068401C05490860EF
:101130000121034801F02EFE10BD024800687047EF
:1011400000040040AC00002010B56FF0040000F077
:1011500074F92E4800682E49B0FBF1F02D49087053
:101160000846007800EB4001C1EBC0104FF6FF715C
:1011700001EAC0002849088010BD0146254A1278BE
:101180004A434FF0E0235A6100229A611A461269DD
:1011900042F001021A6100BF4FF0E022106900F036
:1011A00001021AB100F48032002AF5D04FF0E0229B
:1011B000126922F001024FF0E0231A6100229A61C5
:1011C00070470146144A12884A434FF0E0235A619F
:1011D00000229A611A46126942F001021A6100BFA8
:1011E0004FF0E022106900F001021AB100F48032E1
:1011F000002AF5D04FF0E022126922F001024FF0F0
:10120000E0231A6100229A6170470000000000206C
:1012100000127A00B0000020B2000020014600BF9A
:10122000704700BF494A128802F04002002AF9D0F4
:10123000C2B2464B1B1D1A80704710B586B00446DB
:10124000012144F2040000F033FC4FF40070ADF8CB
:10125000140003208DF8160018208DF8170005A93A
:101260003B4800F069F94FF48060ADF814000420A9
:101270008DF8170005A9364800F05EF925208DF895
:10128000000003208DF801008DF8020001208DF888
:101290000300684600F087F801940020ADF80800CC
:1012A000ADF80A00ADF80C00ADF810000C20ADF858
:1012B0000E0001A9254800F0A2FC012240F22551B0
:1012C000224800F034FD0121204800F024FD06B042
:1012D00010BD10B540F225511C4800F00DFE10B3B2
:1012E0001A4800F089FDC4B21A48008800F4004092
:1012F000C8B91848008800F4804060B10A2C03D0B7
:1013000000201449088020E01248008840F4004082
:101310001049088019E00D2C06D10E48008840F4D1
:1013200080400C49088010E00A480088C0F30D0096
:1013300009490C5407480088401C064908800846A3
:101340000088C72801DD0020088010BD003801405A
:1013500000080140B8000020D00000200948804764
:1013600009480047FEE7FEE7FEE7FEE7FEE7FEE787
:10137000FEE7FEE7FEE7FEE704480549054A064B9F
:10138000704700000703000831010008F801002041
:10139000F8070020F8030020F8030020314901433A
:1013A000314A1160704770B5002100230F22C478C4
:1013B00004B32D4C246804F4E064C4F5E064210A0D
:1013C000C1F10403CA40447804FA03F1847814405C
:1013D00021430901254C0678A155047804F01F0526
:1013E0000124AC4005786D11AD0005F1E025C5F88C
:1013F000004109E0047804F01F050124AC401C4DB5
:101400000678761145F8264070BD1A4A0A40024314
:10141000154B1B1F1A60704739B1134A121D126811
:101420000243114B1B1D1A6006E00F4A121D126881
:1014300082430D4B1B1D1A607047042808D14FF0E2
:10144000E021096941F004014FF0E022116107E059
:101450004FF0E021096921F004014FF0E022116111
:10146000704700000000FA050CED00E000E400E029
:1014700080E100E080FFFF1F10B50446CC488442A5
:1014800008D10121042000F02DFB0021042000F0F0
:1014900029FB46E0C748844208D10121082000F01A
:1014A00021FB0021082000F01DFB3AE0C2488442E5
:1014B00008D10121102000F015FB0021102000F0C0
:1014C00011FB2EE0BD48844208D10121202000F00C
:1014D00009FB0021202000F005FB22E0B8488442EF
:1014E00008D10121402000F0FDFA0021402000F049
:1014F000F9FA16E0B348844208D10121802000F0B7
:10150000F1FA0021802000F0EDFA0AE0AE488442B2
:1015100007D10121801500F0E5FA0021A01500F0A7
:10152000E1FA10BD10B50121084600F0DBFA0021F8
:10153000012000F0D7FA10BD2DE9F0410246002548
:101540000026002000230024002791F803C00CF09F
:101550000F0591F803C00CF0100CBCF1000F03D084
:1015600091F802C04CEA050591F800C0BCF1000FEB
:1015700031D0146800202BE04FF0010C0CFA00F37E
:10158000B1F800C00CEA03069E4220D183004FF060
:101590000F0C0CFA03F7BC4305FA03FC4CEA0404F5
:1015A00091F803C0BCF1280F06D14FF0010C0CFAE2
:1015B00000FCC2F814C00AE091F803C0BCF1480F67
:1015C00005D14FF0010C0CFA00FCC2F810C0401C11
:1015D0000828D1D31460B1F800C0BCF1FF0F34DD8E
:1015E000546800202EE000F1080C4FF0010808FAC2
:1015F0000CF3B1F800C00CEA03069E4221D183002F
:101600004FF00F0C0CFA03F7BC4305FA03FC4CEA4D
:10161000040491F803C0BCF1280F05D100F1080CB7
:1016200008FA0CF8C2F8148091F803C0BCF1480F16
:1016300007D100F1080C4FF0010808FA0CF8C2F8C5
:101640001080401C0828CED35460BDE8F0814FF6CE
:10165000FF710180022181700421C1707047024630
:10166000002093680B400BB1012000E00020704780
:101670000146886880B2704702460020D3680B405C
:101680000BB1012000E0002070470146C86880B21D
:10169000704701617047416170470AB1016100E024
:1016A00041617047C16070474FF480320A438261E4
:1016B0008161826182698269704702460020434BE2
:1016C00018684FF68073184040EA021008433F4BF9
:1016D000186070473E49C8617047F0B50A4600235C
:1016E00000240021002500F00046B6F1004F02D191
:1016F000364EF16901E0354E7168C0F3034583B29F
:1017000000F44016B6F5401F08D121F070612F4E4D
:10171000766826F070662D4F7E6012E000F4801629
:10172000B6F5801F06D1032606FA05F4A14341F061
:10173000706106E0460D360103FA06F6B14341F04A
:10174000706122B1460D360103FA06F6314300F00E
:101750000046B6F1004F02D11C4EF16101E01B4E74
:101760007160F0BD30B500228B071C0F0F2303FA08
:1017700004F2164B08338C1053F824309343134C67
:1017800008348D1044F8253023468C1053F824304B
:101790008C07240F00FA04F423430C4C08348D10FA
:1017A00044F8253030BD0A49DC310860704700003C
:1017B00000080140000C01400010014000140140ED
:1017C00000180140001C01400020014000000140C1
:1017D00000002042DF48006840F00100DD49086059
:1017E00008464068DC490840DA4948600846006815
:1017F000DA490840D74908600846006820F480208C
:1018000008600846406820F4FE0048604FF41F005E
:1018100088607047CF49096821F48031CD4A116052
:101820001146096821F480211160B0F5803F03D092
:10183000B0F5802F0ED106E0C649096841F4803129
:10184000C44A116007E0C349096841F4A021C14AB4
:10185000116000E000BF00BF704710B501460022D4
:10186000002300204A11012A02D1BA4C236806E065
:10187000022A02D1B74C236A01E0B64C636A01F038
:101880001F02012494401C400CB1012000E0002004
:1018900010BD38B5002000900024002500BF312085
:1018A000FFF7DBFF05460098401C00900098B0F55C
:1018B000A06F01D0002DF2D03120FFF7CEFF08B18C
:1018C000012400E00024204638BD01460020A14A42
:1018D000106820F0F80040EAC10010607047A0498D
:1018E00008607047024600209A4B586820F47C102C
:1018F00042EA01031843974B5860704798490866BD
:10190000704701460020934A506820F003000843C6
:10191000506070478F48406800F00C0070470146E7
:1019200000208C4A506820F0F00008435060704757
:1019300001460020874A506820F4E0600843506068
:10194000704701460020834A506820F4605040EA06
:10195000C1005060704729B17E4A527A02437D4BE4
:101960005A7204E07B4A527A82437A4B5A72704729
:101970007B49D8310860704701460020754A50689D
:1019800020F440400843506070470021714A2032E3
:101990001170704A82F82010012802D004280AD160
:1019A00004E001216B4A2032117005E00521694AEB
:1019B0002032117000E000BF00BF70476949086025
:1019C00070476449096A0143624A11627047654978
:1019D00044390860704730B50021002200240023FC
:1019E0005C4D6D6805F00C0121B1042905D0082972
:1019F00023D105E05C4D056022E05B4D05601FE0F2
:101A0000544D6D6805F47012524D6D6805F48034C4
:101A1000022505EB92421CB9544D554305600BE07D
:101A20004C4D6D6805F400351DB1504D55430560B2
:101A300002E04D4D5543056002E04B4D056000BF8F
:101A400000BF444D6D6805F0F0010909484D6B5C1D
:101A50000568DD4045603F4D6D6805F4E061090AA9
:101A6000434D6B5C4568DD4085603A4D6D6805F41B
:101A70006051C90A3E4D6B5C4568DD40C560354D1F
:101A80006D6805F44041890B3A4D6B5CC568B5FB48
:101A9000F3F5056130BD29B12E4A526902432D4B41
:101AA0005A6104E02B4A526982432A4B5A617047BB
:101AB00029B1284A92690243264B9A6104E0254ADB
:101AC00092698243234B9A61704729B1214AD269B6
:101AD0000243204BDA6104E01E4AD26982431D4B67
:101AE000DA61704729B11B4AD2680243194BDA60A8
:101AF00004E0184AD2688243164BDA60704729B175
:101B0000144A12690243134B1A6104E0114A126924
:101B10008243104B1A617047124940390860704780
:101B20000F49C86470470B49C87170470948406A3B
:101B300040F0807007494862704701460020054A1E
:101B400092680A400AB1012000E000207047014974
:101B500088727047001002400000FFF8FFFFF6FE99
:101B6000000042428004424200127A0000093D0017
:101B7000BA000020CA00002010B50446FB48844289
:101B800009D101218803FFF7ADFF00214FF4804008
:101B9000FFF7A8FF32E0F648844209D1012148044A
:101BA000FFF7ADFF00214FF40030FFF7A8FF25E05D
:101BB000F048844209D101218804FFF7A0FF0021E9
:101BC0004FF48020FFF79BFF18E0EB48844209D1D7
:101BD0000121C804FFF793FF00214FF40020FFF715
:101BE0008EFF0BE0E548844208D101210805FFF78C
:101BF00086FF00214FF48010FFF781FF10BD2DE913
:101C0000F04786B005460E460024A24600BFA14616
:101C10000027B08900B100BF2F462C8A4CF6FF7018
:101C20000440F08804432C82AC894EF6F310044043
:101C3000B08831890843718908430443AC81AC8A78
:101C40004FF6FF400440B0890443AC8201A8FFF77F
:101C5000C2FEC648874202D1DDF810A001E0DDF8DF
:101C60000CA0A88900F4004040B10AEBCA0000EBC8
:101C70000A1031684900B0FBF1F807E00AEBCA002E
:101C800000EB0A1031688900B0FBF1F86420B8FB62
:101C9000F0F004012009642101FB1089A88900F4F7
:101CA000004040B1322000EBC900B0FBF1F000F081
:101CB0000700044308E0322000EB09106421B0FB68
:101CC000F1F000F00F0004432C8106B0BDE8F0876E
:101CD0004FF41651016000218180C18001810C21E7
:101CE000418100218181704710B502460020108A91
:101CF0004FF2FF0318400B884C8823438C88234302
:101D0000CC8823431843108210BD002101804180FC
:101D10008180C180704721B1828942F40052828162
:101D200004E082894DF6FF731A4082817047F0B556
:101D30000346002400260025002040F66A17B94219
:101D400000D100BF1846C1F3421401F01F0601275D
:101D500007FA06F5012C01D10C3004E0022C01D168
:101D6000103000E014301AB107682F43076002E01A
:101D70000768AF430760F0BD1AB1838A0B438382C3
:101D800002E0838A8B4383827047028A4FF6F073A6
:101D90001A400282028A0A430282704782894FF205
:101DA000FF731A40828182890A438281704721B180
:101DB000828942F00202828104E082894FF6FD733B
:101DC0001A4082817047028A4FF6DF731A400282FE
:101DD000028A0A430282704721B1028A42F4804299
:101DE000028204E0028A4BF6FF731A4002827047B7
:101DF000C1F308028280704701468888C0F308005A
:101E00007047818941F0010181817047028BD2B214
:101E10000283028B42EA012202837047028B02F4A2
:101E20007F420283028B0A430283704721B1828A78
:101E300042F02002828204E0828A4FF6DF731A4069
:101E40008282704721B1828A42F01002828204E0CD
:101E5000828A4FF6EF731A408282704721B1828ADC
:101E600042F00802828204E0828A4FF6F7731A4039
:101E70008282704721B1828942F40042828103E06C
:101E80008289C2F30E028281704721B1828A42F4B4
:101E90000062828204E0828A4FF2FF731A408282DB
:101EA0007047828A4FF6FB731A408282828A0A4305
:101EB0008282704721B1828A42F00202828204E06B
:101EC000828A4FF6FD731A408282704702460020D4
:101ED000B1F5007F00D100BF13880B400BB101208A
:101EE00000E00020704701F40072B2F5007F00D1DD
:101EF00000BFCA430280704770B502460024002329
:101F00000025002040F66A16B14200D100BFC1F39F
:101F1000421501F01F03012606FA03F3012D02D139
:101F20009689334006E0022D02D1168A334001E043
:101F3000968A33400C12012606FA04F416883440BF
:101F400013B10CB1012000E0002070BD10B50022DB
:101F5000002340F66A14A14200D100BF0A120124F6
:101F60009440A3B2DC43048010BD0000003801405F
:101F70000044004000480040004C00400050004039
:101F800010B50446FE48844208D10121C014FFF771
:101F9000A9FD0021E014FFF7A5FDC4E0B4F1804FD6
:101FA00008D101210846FFF7AAFD00210120FFF713
:101FB000A6FDB8E0F348844208D101210220FFF7D2
:101FC0009EFD00210220FFF79AFDACE0EE4884421E
:101FD00008D101210420FFF792FD00210420FFF722
:101FE0008EFDA0E0E948844208D101210820FFF7D6
:101FF00086FD00210820FFF782FD94E0E44884423A
:1020000008D101211020FFF77AFD00211020FFF7F1
:1020100076FD88E0DF48844208D101212020FFF7C7
:102020006EFD00212020FFF76AFD7CE0DA48844243
:1020300008D101214014FFF755FD00216014FFF77E
:1020400051FD70E0D548844209D10121C804FFF751
:1020500049FD00214FF40020FFF744FD63E0D04824
:10206000844209D101210805FFF73CFD00214FF40E
:102070008010FFF737FD56E0CA48844209D101219C
:102080004805FFF72FFD00214FF40010FFF72AFD50
:1020900049E0C548844208D101214020FFF72FFDC7
:1020A00000214020FFF72BFD3DE0C048844208D1CD
:1020B00001218020FFF723FD00218020FFF71FFD75
:1020C00031E0BB48844208D101218015FFF717FD9C
:1020D0000021A015FFF713FD25E0B648844209D181
:1020E00001210804FFF7FEFC00214FF48030FFF7C8
:1020F000F9FC18E0B048844209D101214804FFF7F7
:10210000F1FC00214FF40030FFF7ECFC0BE0AB4892
:10211000844208D101218804FFF7E4FC00214FF438
:102120008020FFF7DFFC10BD00220288944B98420C
:102130000ED0994B98420BD0B0F1804F08D0914B04
:10214000984205D0904B984202D0904B984204D1CF
:102150004FF68F731A404B881A438D4B984207D025
:102160008C4B984204D04FF6FF431A40CB881A4359
:1021700002808B8883850B880385814B98420BD026
:10218000854B984208D08B4B984205D08A4B984299
:1021900002D08A4B984201D10B7A038601238382B5
:1021A000704770B5002400220023058C4FF6FE76A0
:1021B00035400584028C8388048B4FF68F752C4044
:1021C000B51E2C400D882C43751E2A400D892A43CC
:1021D0004D882A436A4DA8420BD06F4DA84208D0C3
:1021E000744DA84205D0744DA84202D0734DA84248
:1021F00013D14FF6F7752A404D892A434FF6FB75E8
:102200002A408D882A434FF6FF652B404FF6FF5535
:102210002B408D892B43CD892B4383800483CD882C
:102220008586028470BD70B5002400220023058CD1
:102230004FF6EF7635400584028C8388048B48F690
:10224000FF752C404FF6FF452C400D884FF6FF766A
:1022500006EA05252C434FF6DF752A400D8906EA6C
:1022600005152A434D8806EA05152A43444DA84220
:1022700002D0494DA8421DD14FF67F752A404D89A5
:102280004FF6FF7606EA05152A434FF6BF752A403A
:102290008D8806EA05152A434FF6FF352B404FF28D
:1022A000FF752B408D8906EA85052B43CD8906EA0B
:1022B00085052B4383800483CD880587028470BD08
:1022C00070B5002400220023058C4FF6FF663540D0
:1022D0000584028C8388848B4FF68F752C404FF6D3
:1022E000FC752C400D882C434FF6FF552A400D8974
:1022F0004FF6FF7606EA05252A434D8806EA0525AE
:102300002A431F4DA84202D0234DA8421DD14FF2AF
:10231000FF752A404D894FF6FF7606EA05252A43C8
:102320004FF6FF352A408D8806EA05252A434EF6EA
:10233000FF752B404DF6FF752B408D8906EA05157C
:102340002B43CD8906EA05152B4383808483CD88F2
:102350008587028470BD70B5002200230024058C9F
:102360004EF6FF7635400584038C8488828B48F6D0
:10237000FF752A404FF6FF452A400D8820E00000F7
:10238000002C01400004004000080040000C004008
:10239000001000400014004000340140004C014097
:1023A000005001400054014000180040001C004053
:1023B000002000400040014000440140004801402E
:1023C0004FF6FF7606EA05252A434DF6FF752B40AA
:1023D0000D8906EA05352B434D8806EA05352B4362
:1023E000FA4DA84202D0FA4DA84208D14BF6FF752B
:1023F0002C408D894FF6FF7606EA85152C438480A4
:102400008283CD88A0F84050038470BD828B4FF248
:10241000FF331A408283828B4FF6FF7303EA012356
:102420001A4382837047F0B50C46154600220021FE
:102430000026078C4EF6FF7C07EA0C070784828B88
:10244000018C4FF6FF7707EA043640F6FF473A4023
:102450004FF6FF7707EA05273A434FF6FF7707EA7B
:1024600003373A43D94FB8420ED0D94FB8420BD0B8
:10247000B0F1804F08D0D74FB84205D0D64FB84200
:1024800002D0D64FB84206D14DF6FF77394046F418
:102490008057394305E047F6FF57394044F48057E9
:1024A000394382830184F0BD828B4FF6F3731A4067
:1024B0008283828B0A4382837047F0B50C461546AF
:1024C000002200210026078C4FF6FF6C07EA0C075C
:1024D0000784828B018C4FF6FF7707EA04264FF6BC
:1024E0000C773A404FF6FF7707EA03172F433A433A
:1024F000B64FB8420ED0B64FB8420BD0B0F1804FB5
:1025000008D0B44FB84205D0B34FB84202D0B34F51
:10251000B84206D14FF6FF57394046F48077394329
:1025200005E04FF2FF57394044F480773943828306
:102530000184F0BD028B4FF2FF331A400283028BFD
:102540004FF6FF7303EA01231A4302837047F0B585
:102550000C461546002200210026078C4FF6EF7C22
:1025600007EA0C070784028B018C4FF6FF7707EA16
:10257000041640F6FF473A404FF6FF7707EA033765
:102580003A434FF6FF7707EA05273A438F4FB842A1
:102590000ED08F4FB8420BD0B0F1804F08D08D4F86
:1025A000B84205D08C4FB84202D08C4FB84206D109
:1025B0004FF6DF77394046F01007394305E04FF614
:1025C0005F77394044F01007394302830184F0BD3E
:1025D000028B4FF6F3731A400283028B0A43028385
:1025E0007047F0B50C46154600220021068C4FF6C8
:1025F000FE773E400684028B018C4FF60C7632400B
:102600007E1C06EA03162E433243704EB0420ED0B3
:102610006F4EB0420BD0B0F1804F08D06D4EB0423B
:1026200005D06D4EB04202D06C4EB04206D14FF68E
:10263000FD76314044F00106314305E04FF6F57672
:10264000314044F00106314302830184F0BD70B58E
:1026500005460C465D4885420ED05D4885420BD04C
:10266000B5F1804F08D05B48854205D05A48854275
:1026700002D05A48854200D100E000BF208850B9FE
:102680002389A28861882846FFF7ABFFE1882846A6
:10269000FFF79EFF25E0208804280AD12389A2881D
:1026A00061882846FFF753FFE1882846FFF742FF7D
:1026B00017E0208808280AD12389A2886188284643
:1026C000FFF7FBFEE1882846FFF7EEFE09E02389CD
:1026D000A28861882846FFF7A6FEE1882846FFF712
:1026E00095FE70BD2DE9F04105460C4600260127F8
:1026F000608808B9022600E00026A088012801D1E0
:10270000022700E001272088A0B92389A2886188D8
:102710002846FFF766FFE1882846FFF759FF23891F
:102720003A4631462846FFF712FFE1882846FFF770
:1027300001FF13E02389A28861882846FFF707FF7D
:10274000E1882846FFF7F6FE23893A4631462846B7
:10275000FFF747FFE1882846FFF73AFFBDE8F08121
:102760000A884B881A438B881A43CB881A430B89F3
:102770001A434B891A438B891A43A0F844207047A7
:102780004FF6FF71818000210180C180418001727C
:1027900070470021018041808180C1800181418199
:1027A0008181C181704700210180418001218180A8
:1027B0000021C1800181704700210180418081801A
:1027C000C18001814181818170470000002C01405E
:1027D000003401400004004000080040000C0040AC
:1027E00021B1028842F00102028004E002884FF623
:1027F000FE731A400280704731B1B0F8442042F4B1
:102800000042A0F8442005E0B0F84420C2F30E02D4
:10281000A0F8442070471AB183890B43838102E0FA
:1028200083898B43838170478182704741EA020329
:10283000A0F8483070471AB183890B43838102E0C6
:1028400083898B438381704701894FF6F872114069
:10285000018170470A46002101894FF68F731940A4
:1028600011430181704730B504460D462946204684
:10287000FFF7F0FF208940F00700208130BD2DE9EF
:10288000F04104460D4616461F46602D06D13B46D4
:10289000012231462046FFF75AFE05E03B46012261
:1028A00031462046FFF79DFE29462046FFF7D2FF1E
:1028B000208940F007002081BDE8F08130B50C464A
:1028C00000210189C9B24FF6FF7505EA03251543BA
:1028D00025432943018130BD2DE9F04105460E46CF
:1028E00017469846002443463A4631462846FFF7A5
:1028F000E5FF2C894FF6F870044044F007044FF6CA
:102900008F70044044F070042C81BDE8F081F0B574
:1029100004460D4616461F463B463246294620468B
:10292000FFF7CCFF208940F480402081F0BD018575
:10293000828270470A46002101884FF68F73194042
:10294000114301807047F0B50C4615461E46002124
:10295000002200230189028B038C4FF6F87739405F
:1029600021434FF6FC473A4040F201173A434FF6F5
:10297000DD773B404FF6FF7707EA06172F433B43CF
:10298000018102830384F0BD0A460021018B4FF6CA
:102990008F7319401143018370470A460021018B50
:1029A00048F6FF7319404FF6FF7303EA02231943F9
:1029B000018370470A460021818B4FF68F731940BF
:1029C0001143818370470A460021818B48F6FF73CB
:1029D00019404FF6FF7303EA0223194381837047BE
:1029E00021B1028842F08002028004E002884FF6A2
:1029F0007F731A400280704721B1828842F004023E
:102A0000828004E082884FF6FB731A408280704710
:102A100021B1828842F00802828004E082884FF669
:102A2000F7731A408280704721B1828842F0010218
:102A3000828004E082884FF6FE731A4082807047DD
:102A40000A460021018B4FF6F773194011430183A9
:102A500070470A460021018B4FF2FF7319404FF671
:102A6000FF7303EA02231943018370470A460021DA
:102A7000818B4FF6F77319401143818370470A46E3
:102A80000021818B4FF2FF7319404FF6FF7303EA69
:102A900002231943818370470A460021018B4FF6B8
:102AA000FB7319401143018370470A460021018BD3
:102AB0004FF6FF3319404FF6FF7303EA0223194321
:102AC000018370470A460021818B4FF6FB73194042
:102AD0001143818370470A460021818B4FF6FF33F3
:102AE00019404FF6FF7303EA0223194381837047AD
:102AF0000A460021018B4FF67F7319401143018371
:102B000070470A460021018BC1F30E014FF6FF7397
:102B100003EA02231943018370470A460021818B8F
:102B20004FF67F7319401143818370470A46002195
:102B3000818BC1F30E014FF6FF7303EA02231943A1
:102B4000818370470A460021018C4FF6FD731940BE
:102B50001143018470470A460021018C4FF6F77338
:102B600019401143018470470A460021018C4FF639
:102B7000DF7319404FF6FF7303EA02131943018410
:102B800070470A460021018C4FF67F7319404FF6BB
:102B9000FF7303EA02131943018470470A460021B8
:102BA000018C4FF6FF5319404FF6FF7303EA0223DF
:102BB0001943018470470A460021018C4FF2FF73CC
:102BC00019404FF6FF7303EA02231943018470474B
:102BD0000A460021018C4DF6FF7319404FF6FF7332
:102BE00003EA023319430184704730B500230124FE
:102BF0008C40A3B2048C9C430484048C02FA01F53B
:102C0000ADB22C43048430BD30B5002304248C4085
:102C1000A3B2048C9C430484048C02FA01F5ADB287
:102C20002C43048430BD70B50346002000241846B0
:102C3000183001258D40ACB21D8CA5431D8409B10F
:102C4000082909D100EB6100056825F070050560D1
:102C50000568154305600EE00D1FC5F34E052844B9
:102C6000056825F4E045056005684FF6FF7606EA3D
:102C700002263543056070BD21B1028842F0020290
:102C8000028004E002884FF6FD731A40028070470C
:102C900021B1028842F00402028004E002884FF66B
:102CA000FB731A400280704721B1828842F0800293
:102CB000828004E082884FF67F731A4082807047DA
:102CC00002884FF6F7731A40028002880A43028096
:102CD000704782884FF68F731A40828082880A4339
:102CE0008280704702894FF6F8731A400281028988
:102CF0000A430281704702894FF67F731A400281AE
:102D000002890A4302817047818470478185704738
:102D1000818670470187704781877047A0F840100F
:102D2000704702884FF6FF431A40028002880A4328
:102D3000028070470146888E70470146088F7047B1
:102D40000146888F70470146B1F840007047014640
:102D5000888C70470146088D704702460020138A10
:102D60000B400BB1012000E000207047CA430282F3
:102D7000704730B50246002000230024158A05EA7A
:102D80000103958905EA010413B10CB1012000E0AB
:102D9000002030BDCA430282704770470FB4044917
:102DA00010B503AA029800F0DDF810BC5DF814FB22
:102DB000B40000202DE9F0410E46044600202062B8
:102DC0002046E168884730B3252805D0D4E90121A1
:102DD0009047206A401CF2E7E168204600278847B8
:102DE000050018D0A5F14100192802D820354FF46C
:102DF00000673246294620462760FDF7D3F940B1E7
:102E0000012804D0F61D26F007060836D8E7361D3F
:102E1000D6E72846DAE7206ABDE8F0812DE9F041DF
:102E20000646002410687529314616A510D0AFF368
:102E30000080002802DA404213A507E031688A07C3
:102E400001D512A502E0490704D511A5012401E02E
:102E5000AFF3008000210A2206F1240709E0B0FB4D
:102E6000F2FCB0FBF2F302FB1C0030307854184641
:102E7000491C0028F3D123462A463046BDE8F041DC
:102E800000F017B8000000002D0000002B0000002B
:102E900020000000704770477047704710B500F081
:102EA00073F8006810BD10B5044600F06DF80460BA
:102EB00010BD2DE9F0470D4699469246044600F1B3
:102EC00024080168880604D5E06921F0100121601A
:102ED00000E00120A84201DD471B00E00027A169B6
:102EE0007A1902EB0900081AA0612078C00602D402
:102EF0002046AFF30080002608E0D4E901211AF84B
:102F000006009047206A401C761C20624E45F4DB88
:102F10002078C0060AD52046AFF3008006E0D4E949
:102F2000012130209047206A401C2062381EA7F102
:102F30000107F4DC07E0D4E9012118F80500904707
:102F4000206A401C2062281EA5F10105F3DC204602
:102F5000AFF300802078000602D50220BDE8F0879C
:102F60000120FBE7074B70B50D467B4400F015F8D8
:102F70000446284600F024F810B14FF0FF3070BD31
:102F8000204670BDB5E2FFFF004870479801002061
:102F900001694A1C02610878704700B58FB0CDE91D
:102FA00001310021059105497944CDE9031011460D
:102FB0006846FFF7FFFE0FB000BD0000E5FFFFFF12
:102FC000007B00F0800070470048704798010020A7
:102FD0007546FFF7F9FFAE4605006946534620F0F7
:102FE0000700854618B020B5FEF7C6F9BDE82040B9
:102FF0004FF000064FF000074FF000084FF0000BB5
:1030000021F00701AC46ACE8C009ACE8C009ACE867
:10301000C009ACE8C0098D4670470446AFF3008094
:103020002046FDF7D1F82DE9F0414F1E00EBC70116
:103030000446D1E9000115461E4637F006020DD0C0
:103040002A46334600F0ECFC7F1E04EBC703D3E9AD
:10305000002300F02FFA37F00602F1D1022F25D01D
:10306000042F13D0062F18BFBDE8F0812A4633463F
:1030700000F0D6FCD4E90A2300F01CFA2A463346B5
:1030800000F0CEFCD4E9082300F014FA2A463346B7
:1030900000F0C6FCD4E9062300F00CFA2A463346B9
:1030A00000F0BEFCD4E9042300F004FA2A463346BB
:1030B00000F0B6FCD4E9022300F0FCF92A463346BE
:1030C00000F0AEFCD4E90023BDE8F04100F0F2B915
:1030D000002213461046014900F0A8BA0000F03F54
:1030E000012201F098BA002213461046114600F062
:1030F0009DBA00002DE9F04DC84A002490B09142DD
:1031000005DA21F00043934201D805D120B110B077
:10311000BDE8F04DFFF7E4BFB1F5801F1BDA53EABD
:10312000000209D0002911DA0120FFF7BCFE10B01F
:10313000BDE8F04DFFF7D7BF0220FFF7B4FEFFF761
:10314000C7FF10B081F00041BDE8F08D6FF035048D
:10315000362201F060FA04EB2152C1F31308B049A2
:10316000A2F2FF33414401F4801282F07F6103EB4D
:10317000225281F04051009241EA08010022A94BFD
:1031800000F08EFD044608F10200A74EC0F31300C4
:103190000D467E44032867D2D6E90023204600F07E
:1031A0009DFB1ED10098002802BFD6E9000110B097
:1031B000BDE8F08D00F0CEFB07460C469B4A9C4BC9
:1031C00000F02EFC06460D469A4A9B4B3846214697
:1031D00000F026FC10B032462B46BDE8F04D00F062
:1031E00069B94FF05532954B2046294600F018FC3E
:1031F0000022934B00F048FD06460F4622462B4620
:103200001046194600F00CFC32463B4600F008FC24
:10321000064600980F46F0B100F09CFB80468A46B7
:10322000824A834B00F0FCFB32463B4600F02CFD0B
:1032300022462B4600F034FD05460C467D4A7E4B67
:103240004046514600F0ECFB10B02A462346BDE84C
:10325000F04D00F025BD0B4610B032462046294601
:10326000BDE8F04D00F01CBD00224FF08043204629
:1032700000F020F902460B462046294600F0D6F918
:1032800006460F46009800F065FBCDE90401324682
:103290003B461046394600F0C3FB0C9069480C9A37
:1032A0004044019009910B46104600F0B9FB82465C
:1032B000024665488B46C8F151080B4608F5D728E9
:1032C00003217844FFF7AFFE52465B4600F0A8FBAF
:1032D0000A905E480D9152465B4604217844FFF700
:1032E000A2FE099B0C9A00F09BFB844601980D9B63
:1032F00040EA080860460A9A00F0DCF88346089124
:10330000B8F1000F4EDD4FF0FF322046294601F0A4
:1033100082F922462B4600F083FB804600988A46BD
:1033200060B3DDE90401414A414B00F079FB0991AA
:1033300000905A4640465146089B00F0BBF8324682
:103340003B4600F06DFB099B009A00F0B3F8424643
:10335000534600F099FC22462B4600F0A1FC04469F
:103360000D46DDE90401334A334B00F059FB10B040
:1033700022462B46BDE8F04D00F092BC5A4640462E
:10338000089B00F097F832463B4600F049FB424666
:10339000534600F079FC10B022462B46BDE8F04DB4
:1033A00000F072BC009840B3DDE904011F4A204BD5
:1033B00000F036FB80468A465A4620462946089B3E
:1033C00000F06EFC32463B4600F02AFB4246534674
:1033D00000F066FC22462B4600F062FC04460D46D7
:1033E000DDE90401134A144B00F01AFB10B0224629
:1033F0002B46BDE8F04D00F053BC0B465A46204624
:10340000294600F04DFC32463B4600F009FB10B067
:1034100022462B46BDE8F04D00F036BC0000F07FA0
:10342000645F09000000F03F4A150000763C7935E2
:10343000EF39EA3D0000E0FE422EE63F5555D53F0C
:103440000000E03F86EBF9FFE2130000E01300000C
:1034500021F00042A2F16052B2F5801F01F000435A
:1034600028BFD2F17F6C0BD95FEA001C43EAC2028D
:1034700042EB507018BF704728BF20F00100704722
:10348000B2F5801FBCBF184670474FEA410C1CF5CF
:10349000001F02D2084600F0E0BF70B500F06AFBE2
:1034A00000000089FFF7F6BF4FF00040A0F5800054
:1034B0007047000010B591EA030F48BF83F0004346
:1034C00000F1F683841A71EB030C05D2121943EB59
:1034D0000C03001B61EB0C01DFF824E14FEA1154EF
:1034E000A4EB135C1EEA430F18BF9EEA445F73D03F
:1034F00023EA0E03DCF1200E21EA045143F4801389
:1035000032D322FA0CFE10EB0E0023FA0CFE41EB34
:103510000E01CCF1200E03FA0EFE10EB0E0051F15D
:103520000001B1F5801FCCF1200E32D201EB045125
:1035300012FA0EF2BDE8104058BF7047401C38BF69
:103540005FEA420218BF7047002814BF20F0010054
:1035500041F100014FEA410313F5001F38BF7047E6
:10356000A1F1C04100F054BB012A43EB0302ACF1CE
:10357000200CDCF11F0E32BF4FF0000E23FA0CF3CB
:1035800010EB030041EB0451B4EB115FD0D0A1EB81
:10359000045101F5801149085FEA300001EB045144
:1035A0000ED350F1000038BF12FA0EFE08D1BDE86C
:1035B0001040C9E7401C38BF5FEA4202CAD1C3E7E6
:1035C000BDE810404FEA410313F5001F38BF7047B4
:1035D000A1F1C04100F01CBB9EEA445F08D011EA93
:1035E0005E0FBDE8104004BF01F0004100207047AD
:1035F000BDE8104070B500F0BDFA00BF64FBBE3EF0
:103600000000E0FF02494FF0000000F0D2BF00BF11
:103610000000F87F491058BFC1F140415B1058BF0E
:10362000C3F140438B42EFF3008070472DE9C04166
:1036300030B4DFF8A0C23CEA111418BF3CEA1314FE
:1036400000F0EC8081EA03051CEA111444EAD57409
:1036500018BF1CEA131500F0C780A4EB05044FF057
:10366000004545EAC12145EAC32341EA505143EAF6
:10367000525304F17F74994204F500344FEAC0209C
:103680004FEAC22208BF904200F09C804FEA1365C7
:103690000FF24016765D4FEA134506FB05F7C7F1BA
:1036A000807706FB07F74FEAD737A7FB0368764218
:1036B000C8F58038A7FB06CE38BFA8F1010807FB84
:1036C00008E64FF0000EA6FB028CE6FB03CEDCF111
:1036D000000CCEF1004E38BFAEF1010EA6FB0C5827
:1036E0004FF000074FF00005E6FB0E87A1FB08C670
:1036F000A0FB07CE16EB0E0645F10005E1FB0765C2
:1037000015F1E04E7EBFA4F580345FEA46066D41B8
:1037100016F1800745F100054FEA17274FEA0666C4
:1037200047EA0567A6F1DE46B6F1805F4FEA152548
:103730001FD9384624F0010C05EBC471BCF1FE6FB3
:1037400001EB0C1102D8F0BCBDE8008124425CBF43
:1037500001F5801E9EEAC47F02D4F0BCBDE8008162
:10376000244238D4F0BCA1F1C041BDE8004100F0D2
:103770004FBA4FEAD22242EA43524FEAD323A7FB81
:1037800002864FEAD02040EA415007FB03661EEA5A
:103790000E0F4FEAD12105FB026658BFA6EB00567B
:1037A000B6EB00564FEA520E4EEAC37E18EB0E0EF1
:1037B00056EB530EBDD518EB02085E417F1C55F148
:1037C0000005B6E74FF480154FF000074FF00006F4
:1037D0004FF00008ADE7F0BC4FF0000001F1C04130
:1037E00001F00041BDE8008111EA0C1F0CEA13153D
:1037F00000D00CE013EA0C1F00F025804FF0000011
:10380000F0BC81EA030101F00041BDE80081F0BC99
:10381000BDE8004181EA030100F0FAB9F0BCBDE85F
:10382000004170B500F0A6F9097EFC3E00F007B833
:1038300081EA03014FF0000001F00041704781EA86
:10384000030100F0E5B9F0BCBDE800414FF0000015
:1038500021497047FFFDFBF9F7F5F4F2F0EEEDEBCF
:10386000E9E8E6E4E3E1E0DEDDDBDAD8D7D5D4D37E
:10387000D1D0CFCDCCCBCAC8C7C6C5C4C2C1C0BFCA
:10388000BEBDBCBBBAB9B8B7B6B5B4B3B2B1B0AFD0
:10389000AEADACABAAA9A8A8A7A6A5A4A3A3A2A1B4
:1038A000A09F9F9E9D9C9C9B9A999998979796956F
:1038B00095949393929191908F8F8E8E8D8C8C8B0B
:1038C0008B8A898988888787868585848483838293
:1038D000828181800000FF070000F87F51EA030C1D
:1038E00017D41CF5801F58BFBCF5801F00F106805F
:1038F000994218BF704708BF9042704707D711F52B
:10390000801F58BF13F5801F19D499427047894210
:1039100070471CF5801F08D5BCF5801FF7D58B427A
:1039200018BF704708BF824270474FF4001C1CEB61
:10393000410F38BF1CEB430F01D28B42704770B56B
:1039400000F018F9922449004FF000514FF08053D5
:10395000FFF760BE10F0004248BF4042B0FA80F36B
:1039600010FA03F10AD0C3F11D0303F580634FEA97
:10397000415002EB035202EBD12170474FF000009F
:103980007047B0FA80F310FA03F10AD0C3F11D03B7
:1039900003F580634FEA41504FEA035202EBD12115
:1039A00070474FF00000704751EA030C17D41CF524
:1039B000801F58BFBCF5801F00F10680994218BFD8
:1039C000704708BF9042704707D711F5801F58BF56
:1039D00013F5801F19D499427047894270471CF52E
:1039E000801F08D5BCF5801FF7D58B4218BF7047E4
:1039F00008BF824270474FF4001C1CEB410F38BFD8
:103A00001CEB430F01D28B42704770B500F0B2F847
:103A1000922449004FF000514FF08053FFF7FABD58
:103A2000DFF848C170B51CEA111E1EBF1CEA131551
:103A30009EEA0C0F95EA0C0F00F06F8081EA0304F8
:103A400023EA4C134EEAD47E21EA4C1141F4801152
:103A500043F48013AE44A1FB024CA0FB0365AEF11E
:103A60007F7E361955EB0C05A1FB034C4CF100038E
:103A7000A0FB021C16EB0C06654153F10003094242
:103A800018BF46F0010613F4007F0BD14FEA033153
:103A90004FEA0530340341EA155140EA16506FF001
:103AA00003020AE04FEAC3214FEAC520F40241EACB
:103AB000555140EA56506FF0020202EB2E4201EBE4
:103AC000025585EACE710AD05FEA440C18BF24F093
:103AD000004450F1000041F1000120EAD47040F2AE
:103AE000FE7C624500D270BDA84214BF4FF08044F6
:103AF0004FF04044002E08BF0024BEF1806FA8BFE5
:103B0000A1F1C041BDE8704080F282804FF000001A
:103B100001F1C04101F0004170479EEA0C0F0CEA30
:103B2000131518BF95EA0C0F06D04FF0000081EA7C
:103B3000030E0EF0004170BD00F01CF88900013E3C
:103B400000F007B800F009B84FEA430C5FEA5C5C8C
:103B500008D081EA030100F05BB84FEA410C5FEA4C
:103B60005C5CF6D14FF00000014970470000FF0790
:103B70000000F87F0EF1020E2EF0030E5EF8046BCB
:103B8000364205D4012A43EB030515F5001F12D870
:103B9000012841EB010C1CF5001F0CD80ED14FEA97
:103BA000D17C15F5001F0CEB4C0C0CF1020C08BF7E
:103BB0004CEBD37C04E04FF0080C01E04FEAD37CDF
:103BC0000CEB4C0526FA05F606F00706B6F1040CD8
:103BD00006D20EEB860CBDE870404CF0010C60473D
:103BE000DFE80CF0090B02024FF000414FF000003B
:103BF000A1F5002170BD19461046012851EB0104C2
:103C000018BFD4F5001484BF002001F0004170BD3E
:103C10000808A0F500114FEA3101704753EA010C82
:103C200017D41CF5801F58BFBCF5801F00F106801B
:103C30008B4218BF704708BF8242704707D713F501
:103C4000801F58BF11F5801F19D48B4270479B42CB
:103C500070471CF5801F08D5BCF5801FF7D5994229
:103C600018BF704708BF904270474FF4001C1CEB10
:103C7000430F38BF1CEB410F01D2994270470FB47C
:103C80000CBC03BCFFF7C1BE91EA030F10B581F075
:103C900000413FF517AC83F0004300F009B8000085
:103CA00010B591EA030F48BF83F000433FF50AAC1B
:103CB000841A71EB030C07D212198CF0004C43EB01
:103CC0000C03001B61EB0C01DFF8A4E14FEA115477
:103CD000A4EB135C1EEA430F18BF9EEA445F00F09A
:103CE000B08023EA6E03524221EA0451C3EB6E0313
:103CF00038BF5B1EDCF1200E25D322FA0CFE10EB40
:103D00000E0043FA0CFE41EB0E01CCF1200E03FA3B
:103D10000EFE10EB0E0051F10001CCF1200E29D463
:103D200012FA0EF201EB0451BDE8104058BF704783
:103D3000401C1CBFB2F1004F704700280CBF491C4B
:103D400020F00100704712EB020E43EB030218BF94
:103D50004FF0010E4EEA4202ACF1200CDCF11E0ED7
:103D600054D943FA0CFE10EB0E0051F1FF31CCF1A7
:103D70001E0ED5D50EF1010E12FA0EFE404141EB9A
:103D8000010101EB445C5FEA5C5C10D910EBDE7072
:103D900001EB045138BFBEF1004FBDE8104018BF21
:103DA000704700280CBF491C20F00100704730D23A
:103DB0004FEAD42C11F5001124F400641BD0B1FAA1
:103DC00081F20B3AA41AA41ED2F12003914030FADA
:103DD00003F31943904001EBCC71002C01EB04512B
:103DE000BDE81040A8BF704701F1C0414FF000008E
:103DF00001F000417047B0FA80F310FA03F100D1EE
:103E000010BDE41A173C4805C90AE4E701EB045168
:103E100010BD491001EB0451BDE810404FEA3000DD
:103E200002E04FF0000170474A0008BF0042F8D09E
:103E3000B2F5001F28BF704701F000414FF00000AD
:103E400070479EEA445F07D011EA5E0FBDE810405C
:103E500004BF002100207047BDE8104070B5FFF797
:103E600089FE00BF40DFF63E83F0004110467047F8
:103E70000000E0FF43004FEAD30C4FEA3C0C434004
:103E80001FBF40070CF1605113F0FE4F70471CF04C
:103E9000006F03D100200CF0004170470CF000438C
:103EA00043EA507010B540EACC0000F090FA00BF31
:103EB000000000924FEA0001FFF7AABE4FF0004158
:103EC0004FF00000A1F500217047000090EA010FBB
:103ED00048BF81F0004100F1FE82421A3CBF801AC7
:103EE00089184FEAD0524FF07F4C1CEA410FA2EBE9
:103EF000D15318BF9CEA026F00F03B804FF0004C9A
:103F00004CEA00204CEA012121FA03FC10EB0C0CD6
:103F10001ED202F1FF325FEA1C2040EBC25038BFD4
:103F200070471CF07F0F4FEA400C18BFBCF17F4F69
:103F300038BF7047C3F12003994008BF20F001004B
:103F4000BCF17F4F38BF7047A0F1C04000F085BA88
:103F50004FEA3C00000A40EBC25028BF1CF0FF0FA4
:103F60004FEA400CE6D018BFBCF17F4F38BF704716
:103F7000EAE79CEA026F05D010EA5C0F08BF00F088
:103F80000040704710B500F022FA00BF64FBBE3E4F
:103F9000401058BFC0F14040491058BFC1F14041E6
:103FA0008142EFF3008070474FF47F0C1CEAD0127F
:103FB0001EBF1CEAD11392EA0C0F93EA0C0F00F01B
:103FC000858090EA010F48BF42F4807240F4000CF3
:103FD00041F400002CF07F4120F07F4000B5814289
:103FE000A2EB03020FF2081CACEB504EC0F1000034
:103FF0009EF800E04FEA4E0E00FB0EFC38BF490071
:104000004FEA2C1C02F5FA020CFB0EF34FEACE1E0F
:104010004FEA112C4FEAC1210EEB635E42EB2242C4
:104020000EFB0CFC4FEA1C5300FB03114FEA112C52
:104030004FEA01310EFB0CFC4FEADC4C00FB0C118B
:10404000C14228BF09184CEB03335DF804EB10EBB9
:10405000410143EBC250B2F57C0F38BF704729D500
:1040600012F0F00F1CBF00F1C04000F0004070479C
:10407000008182838485868788898B8C8D8E8F9141
:104080009293959697999A9C9D9FA0A2A3A5A7A865
:10409000AAACAEB0B2B3B5B7B9BCBEC0C2C5C7C991
:1040A000CCCED1D4D7D9DCDFE2E6E9ECF0F3F7FAF5
:1040B000FE0000004FEA400C0CF1807CBCF17E4F0A
:1040C00028BF7047B0F1C04000F0C7B990EA010FB7
:1040D0000CEAD11348BF42F48072624538BF634591
:1040E00007D213F47F0F16D080EA010000F00040E1
:1040F000704710B500F06BF9097EFC3E00F005B882
:1041000080EA010000F00040704780EA010000F002
:10411000004000F0A2B912F47F0F04BF02487047BC
:1041200080EA010000F099B90000C07F50EA010C5C
:1041300000F113801CF5000F58BFBCF5000F01D42F
:104140008842704707D710F5000F58BF11F5000FD0
:1041500015D488427047894270471CF5000F04D57A
:10416000BCF5000FF7D5814270474FF0807C1CEB07
:10417000400F38BF1CEB410F01D28142704710B590
:1041800000F025F9922449004FF000504FF0805183
:10419000FFF7FEBE41000B0ED3F19E0208D950F48A
:1041A00000034FEA032323FA02F048BF404270475E
:1041B00010B500F00CF900BF499224800020704730
:1041C0006FF0004282EA200070470000C10DD1F17B
:1041D0009E0206DB4FEA002343F0004323FA02F07D
:1041E0007047004207D54FEA4001B1F1FE4F02D2BD
:1041F0004FF00000704710B500F0E9F849922480B4
:10420000002070476FEA20007047000010F0004166
:1042100048BF4042B0FA80F310FA03F2C3F19D03A5
:104220000BD051EAC35101EB1220530638BF70473F
:1042300000F1010008BF20F001007047B0FA80F3E0
:1042400010FA03F2C3F19D030AD0D90501EB122045
:10425000530638BF704700F1010008BF20F001008D
:104260007047000050EA010C00F113801CF5000FAC
:1042700058BFBCF5000F01D48842704707D710F52E
:10428000000F58BF11F5000F15D4884270478942BE
:1042900070471CF5000F04D5BCF5000FF7D581421F
:1042A00070474FF0807C1CEB400F38BF1CEB410F78
:1042B00001D28142704710B500F089F8922449007C
:1042C0004FF000504FF08051FFF762BE4FF47F0C6B
:1042D0001CEAD0121EBF1CEAD11392EA0C0F93EA1B
:1042E0000C0F00F0478090EA010F48BF42F4807243
:1042F0004FF0004C4CEA00204CEA012102EB030293
:10430000A0FB0113A2F50002002918BF43F001032E
:104310005B0028BF4FEA330342EB22425FEA132CD3
:104320004CEBC2502EBFBCEB436FB2F57C0F704715
:104330004FEA036CBCF1004F08BF20F00100B2F55A
:104340007C0F38BF70470BD582F0FF0212F5803F1B
:10435000C8BF704700F1C040D8BF00F000407047B0
:1043600000F5000C5FEA4C0C48BF7047B0F1C0404C
:1043700000F073B890EA010F0CEAD11348BF42F481
:104380008072624538BF634504D280EA010000F0C4
:104390000040704710B500F01AF800BF8900013ED8
:1043A00000F007B800F009B85FEA410C5FEA1C6C46
:1043B00008D080EA010000F050B85FEA400C5FEAE4
:1043C0001C6CF6D14FF00040A0F5800070470EF154
:1043D000020E2EF0030E5EF8044B244204D44FEA82
:1043E0004102B2F17F4F11D84FEA4003B3F17F4F42
:1043F0000CD80ED14FEAD07CB2F17F4F0CEB4C0CB5
:104400000CF1020C08BF4CEBD17C04E04FF0080C1F
:1044100001E04FEAD17C0CEB4C0324FA03F404F0E6
:104420000704B4F1040C06D20EEB840CBDE8104076
:104430004CF0010C6047DFE80CF0070802024FF077
:104440000040A0F5800010BD0846420018BFD2F120
:10445000807288BF00F0004010BDFF2141EAD050BB
:10446000C005704751EA000C00F113801CF5000FE5
:1044700058BFBCF5000F01D48142704707D711F532
:10448000000F58BF10F5000F15D4814270478942C4
:1044900070471CF5000F04D5BCF5000FF7D5884216
:1044A00070474FF0807C1CEB410F38BF1CEB400F76
:1044B00001D28842704780EA010081EA000180EA67
:1044C0000100FFF7F8BE000090EA010F48BF81F03D
:1044D00000413FF502AD421A04D882F00042A0EB41
:1044E000020011444FEAD0524FF07F4C1CEA410FBA
:1044F000A2EBD15318BF9CEA026F4AD04FF0004C98
:104500004CEA00204CEA012121FA03FCB0EB0C0C30
:104510000FD412F0FE0F36D05FEA4C001DD500120A
:1045200040EBC25038BF70471CF03F0F18BF7047B8
:104530000BE0A2F101025FEA1C2040EBC25038BF41
:1045400070471CF07F0F18BF7047C3F120039940DC
:1045500014BF401E20F00100704780084FEA12236C
:1045600008BF7047B0FA80FCA2EB0C02CCF1280C1B
:1045700060FA0CF093EA122F04BF00EBC2507047B0
:104580004FEAC3707047130A5FEADC1008BF704738
:10459000F6E79CEA026F04D010EA5C0F08BF002027
:1045A000704710B5FFF713FF40DFF63E81F0004083
:1045B00070470CF00F03092B08BF082000F059804A
:1045C0000A2B0BD0082B18BF704708BF1CF0400FF8
:1045D0000AD04FF000004FF0000170471CF0400F70
:1045E00018BF4FF0004070471CF0100F08D020F0AB
:1045F000704300F07F4242EAD3014FEA43707047B4
:1046000000F0604021F07F4242EA000201F07F406A
:1046100040EA727070474FF0FF0C4CF4E06C1CEAFB
:1046200011531CBF9CEA030C9445C2BFDA4201EB54
:1046300002517047002B0DD0BCF1000F0FD0002AA3
:1046400001F00041A4BF41F0E04141F07F614FF033
:104650000000704701F000414FF00000704750EA41
:1046600001334FF09B0C18BF4CF0806C7EF4CAAF46
:1046700070471CF4801F11D01CF4E02F03D06FEAA8
:10468000CC31490070474FF04050EFF3008222F0E8
:10469000704242EA000282F3008870474FF0000047
:1046A000704700000000000004FA97999999D93FDB
:1046B000AF788E1DC571CC3F9FC678D0099AC33F95
:1046C000935555555555E53F599322942449D23F6A
:1046D000DE03CB966446C73F44523EDF12F1C23F31
:1046E0000000000000000000084700080000002053
:1046F000D00000006C010008D8470008D00000205E
:10470000280700008801000800A24A0400000000F9
:104710000000000001020304060708090000000071
:104720000000000000000000000000000000000089
:104730000000000000000000000000000000000079
:104740000000000000000000000000000000000069
:104750000000000000000000000000000000000059
:104760000000000000000000000000000000000049
:104770000000000064646464636363636363626293
:104780006262626161616161616060606060605F1E
:104790005F5F5F5F5F5E5E5E5E5E5D5D5D5D5D0097
:1047A0000000000000000000000000000000000009
:1047B00000000000000000000000000000000000F9
:1047C00000000000000001020304010203040607C8
:0847D0000809020406080000BC
:0400000508000131BD
:00000001FF
